{
  "_format": "hh-sol-artifact-1",
  "contractName": "ERC4907",
  "sourceName": "contracts/ERC4907.sol",
  "abi": [
    {
      "inputs": [
        {
          "internalType": "string",
          "name": "name",
          "type": "string"
        },
        {
          "internalType": "string",
          "name": "symbol",
          "type": "string"
        }
      ],
      "stateMutability": "nonpayable",
      "type": "constructor"
    },
    {
      "inputs": [
        {
          "internalType": "address",
          "name": "sender",
          "type": "address"
        },
        {
          "internalType": "uint256",
          "name": "tokenId",
          "type": "uint256"
        },
        {
          "internalType": "address",
          "name": "owner",
          "type": "address"
        }
      ],
      "name": "ERC721IncorrectOwner",
      "type": "error"
    },
    {
      "inputs": [
        {
          "internalType": "address",
          "name": "operator",
          "type": "address"
        },
        {
          "internalType": "uint256",
          "name": "tokenId",
          "type": "uint256"
        }
      ],
      "name": "ERC721InsufficientApproval",
      "type": "error"
    },
    {
      "inputs": [
        {
          "internalType": "address",
          "name": "approver",
          "type": "address"
        }
      ],
      "name": "ERC721InvalidApprover",
      "type": "error"
    },
    {
      "inputs": [
        {
          "internalType": "address",
          "name": "operator",
          "type": "address"
        }
      ],
      "name": "ERC721InvalidOperator",
      "type": "error"
    },
    {
      "inputs": [
        {
          "internalType": "address",
          "name": "owner",
          "type": "address"
        }
      ],
      "name": "ERC721InvalidOwner",
      "type": "error"
    },
    {
      "inputs": [
        {
          "internalType": "address",
          "name": "receiver",
          "type": "address"
        }
      ],
      "name": "ERC721InvalidReceiver",
      "type": "error"
    },
    {
      "inputs": [
        {
          "internalType": "address",
          "name": "sender",
          "type": "address"
        }
      ],
      "name": "ERC721InvalidSender",
      "type": "error"
    },
    {
      "inputs": [
        {
          "internalType": "uint256",
          "name": "tokenId",
          "type": "uint256"
        }
      ],
      "name": "ERC721NonexistentToken",
      "type": "error"
    },
    {
      "anonymous": false,
      "inputs": [
        {
          "indexed": true,
          "internalType": "address",
          "name": "owner",
          "type": "address"
        },
        {
          "indexed": true,
          "internalType": "address",
          "name": "approved",
          "type": "address"
        },
        {
          "indexed": true,
          "internalType": "uint256",
          "name": "tokenId",
          "type": "uint256"
        }
      ],
      "name": "Approval",
      "type": "event"
    },
    {
      "anonymous": false,
      "inputs": [
        {
          "indexed": true,
          "internalType": "address",
          "name": "owner",
          "type": "address"
        },
        {
          "indexed": true,
          "internalType": "address",
          "name": "operator",
          "type": "address"
        },
        {
          "indexed": false,
          "internalType": "bool",
          "name": "approved",
          "type": "bool"
        }
      ],
      "name": "ApprovalForAll",
      "type": "event"
    },
    {
      "anonymous": false,
      "inputs": [
        {
          "indexed": true,
          "internalType": "address",
          "name": "from",
          "type": "address"
        },
        {
          "indexed": true,
          "internalType": "address",
          "name": "to",
          "type": "address"
        },
        {
          "indexed": true,
          "internalType": "uint256",
          "name": "tokenId",
          "type": "uint256"
        }
      ],
      "name": "Transfer",
      "type": "event"
    },
    {
      "anonymous": false,
      "inputs": [
        {
          "indexed": true,
          "internalType": "uint256",
          "name": "tokenId",
          "type": "uint256"
        },
        {
          "indexed": true,
          "internalType": "address",
          "name": "user",
          "type": "address"
        },
        {
          "indexed": false,
          "internalType": "uint64",
          "name": "expires",
          "type": "uint64"
        }
      ],
      "name": "UpdateUser",
      "type": "event"
    },
    {
      "inputs": [
        {
          "internalType": "address",
          "name": "to",
          "type": "address"
        },
        {
          "internalType": "uint256",
          "name": "tokenId",
          "type": "uint256"
        }
      ],
      "name": "approve",
      "outputs": [],
      "stateMutability": "nonpayable",
      "type": "function"
    },
    {
      "inputs": [
        {
          "internalType": "address",
          "name": "owner",
          "type": "address"
        }
      ],
      "name": "balanceOf",
      "outputs": [
        {
          "internalType": "uint256",
          "name": "",
          "type": "uint256"
        }
      ],
      "stateMutability": "view",
      "type": "function"
    },
    {
      "inputs": [
        {
          "internalType": "uint256",
          "name": "tokenId",
          "type": "uint256"
        }
      ],
      "name": "getApproved",
      "outputs": [
        {
          "internalType": "address",
          "name": "",
          "type": "address"
        }
      ],
      "stateMutability": "view",
      "type": "function"
    },
    {
      "inputs": [
        {
          "internalType": "address",
          "name": "owner",
          "type": "address"
        },
        {
          "internalType": "address",
          "name": "operator",
          "type": "address"
        }
      ],
      "name": "isApprovedForAll",
      "outputs": [
        {
          "internalType": "bool",
          "name": "",
          "type": "bool"
        }
      ],
      "stateMutability": "view",
      "type": "function"
    },
    {
      "inputs": [],
      "name": "name",
      "outputs": [
        {
          "internalType": "string",
          "name": "",
          "type": "string"
        }
      ],
      "stateMutability": "view",
      "type": "function"
    },
    {
      "inputs": [
        {
          "internalType": "uint256",
          "name": "tokenId",
          "type": "uint256"
        }
      ],
      "name": "ownerOf",
      "outputs": [
        {
          "internalType": "address",
          "name": "",
          "type": "address"
        }
      ],
      "stateMutability": "view",
      "type": "function"
    },
    {
      "inputs": [
        {
          "internalType": "address",
          "name": "to",
          "type": "address"
        },
        {
          "internalType": "uint256",
          "name": "tokenId",
          "type": "uint256"
        }
      ],
      "name": "safeMint",
      "outputs": [],
      "stateMutability": "nonpayable",
      "type": "function"
    },
    {
      "inputs": [
        {
          "internalType": "address",
          "name": "from",
          "type": "address"
        },
        {
          "internalType": "address",
          "name": "to",
          "type": "address"
        },
        {
          "internalType": "uint256",
          "name": "tokenId",
          "type": "uint256"
        }
      ],
      "name": "safeTransferFrom",
      "outputs": [],
      "stateMutability": "nonpayable",
      "type": "function"
    },
    {
      "inputs": [
        {
          "internalType": "address",
          "name": "from",
          "type": "address"
        },
        {
          "internalType": "address",
          "name": "to",
          "type": "address"
        },
        {
          "internalType": "uint256",
          "name": "tokenId",
          "type": "uint256"
        },
        {
          "internalType": "bytes",
          "name": "data",
          "type": "bytes"
        }
      ],
      "name": "safeTransferFrom",
      "outputs": [],
      "stateMutability": "nonpayable",
      "type": "function"
    },
    {
      "inputs": [
        {
          "internalType": "address",
          "name": "operator",
          "type": "address"
        },
        {
          "internalType": "bool",
          "name": "approved",
          "type": "bool"
        }
      ],
      "name": "setApprovalForAll",
      "outputs": [],
      "stateMutability": "nonpayable",
      "type": "function"
    },
    {
      "inputs": [
        {
          "internalType": "uint256",
          "name": "tokenId",
          "type": "uint256"
        },
        {
          "internalType": "address",
          "name": "user",
          "type": "address"
        },
        {
          "internalType": "uint64",
          "name": "expires",
          "type": "uint64"
        }
      ],
      "name": "setUser",
      "outputs": [],
      "stateMutability": "nonpayable",
      "type": "function"
    },
    {
      "inputs": [
        {
          "internalType": "bytes4",
          "name": "interfaceId",
          "type": "bytes4"
        }
      ],
      "name": "supportsInterface",
      "outputs": [
        {
          "internalType": "bool",
          "name": "",
          "type": "bool"
        }
      ],
      "stateMutability": "view",
      "type": "function"
    },
    {
      "inputs": [],
      "name": "symbol",
      "outputs": [
        {
          "internalType": "string",
          "name": "",
          "type": "string"
        }
      ],
      "stateMutability": "view",
      "type": "function"
    },
    {
      "inputs": [
        {
          "internalType": "uint256",
          "name": "tokenId",
          "type": "uint256"
        }
      ],
      "name": "tokenURI",
      "outputs": [
        {
          "internalType": "string",
          "name": "",
          "type": "string"
        }
      ],
      "stateMutability": "view",
      "type": "function"
    },
    {
      "inputs": [
        {
          "internalType": "address",
          "name": "from",
          "type": "address"
        },
        {
          "internalType": "address",
          "name": "to",
          "type": "address"
        },
        {
          "internalType": "uint256",
          "name": "tokenId",
          "type": "uint256"
        }
      ],
      "name": "transferFrom",
      "outputs": [],
      "stateMutability": "nonpayable",
      "type": "function"
    },
    {
      "inputs": [
        {
          "internalType": "uint256",
          "name": "tokenId",
          "type": "uint256"
        }
      ],
      "name": "userExpires",
      "outputs": [
        {
          "internalType": "uint256",
          "name": "",
          "type": "uint256"
        }
      ],
      "stateMutability": "view",
      "type": "function"
    },
    {
      "inputs": [
        {
          "internalType": "uint256",
          "name": "tokenId",
          "type": "uint256"
        }
      ],
      "name": "userOf",
      "outputs": [
        {
          "internalType": "address",
          "name": "",
          "type": "address"
        }
      ],
      "stateMutability": "view",
      "type": "function"
    }
  ],
  "bytecode": "0x60806040523480156200001157600080fd5b5060405162002996380380620029968339818101604052810190620000379190620001fa565b818181600090816200004a9190620004ca565b5080600190816200005c9190620004ca565b5050505050620005b1565b6000604051905090565b600080fd5b600080fd5b600080fd5b600080fd5b6000601f19601f8301169050919050565b7f4e487b7100000000000000000000000000000000000000000000000000000000600052604160045260246000fd5b620000d08262000085565b810181811067ffffffffffffffff82111715620000f257620000f162000096565b5b80604052505050565b60006200010762000067565b9050620001158282620000c5565b919050565b600067ffffffffffffffff82111562000138576200013762000096565b5b620001438262000085565b9050602081019050919050565b60005b838110156200017057808201518184015260208101905062000153565b60008484015250505050565b6000620001936200018d846200011a565b620000fb565b905082815260208101848484011115620001b257620001b162000080565b5b620001bf84828562000150565b509392505050565b600082601f830112620001df57620001de6200007b565b5b8151620001f18482602086016200017c565b91505092915050565b6000806040838503121562000214576200021362000071565b5b600083015167ffffffffffffffff81111562000235576200023462000076565b5b6200024385828601620001c7565b925050602083015167ffffffffffffffff81111562000267576200026662000076565b5b6200027585828601620001c7565b9150509250929050565b600081519050919050565b7f4e487b7100000000000000000000000000000000000000000000000000000000600052602260045260246000fd5b60006002820490506001821680620002d257607f821691505b602082108103620002e857620002e76200028a565b5b50919050565b60008190508160005260206000209050919050565b60006020601f8301049050919050565b600082821b905092915050565b600060088302620003527fffffffffffffffffffffffffffffffffffffffffffffffffffffffffffffffff8262000313565b6200035e868362000313565b95508019841693508086168417925050509392505050565b6000819050919050565b6000819050919050565b6000620003ab620003a56200039f8462000376565b62000380565b62000376565b9050919050565b6000819050919050565b620003c7836200038a565b620003df620003d682620003b2565b84845462000320565b825550505050565b600090565b620003f6620003e7565b62000403818484620003bc565b505050565b5b818110156200042b576200041f600082620003ec565b60018101905062000409565b5050565b601f8211156200047a576200044481620002ee565b6200044f8462000303565b810160208510156200045f578190505b620004776200046e8562000303565b83018262000408565b50505b505050565b600082821c905092915050565b60006200049f600019846008026200047f565b1980831691505092915050565b6000620004ba83836200048c565b9150826002028217905092915050565b620004d5826200027f565b67ffffffffffffffff811115620004f157620004f062000096565b5b620004fd8254620002b9565b6200050a8282856200042f565b600060209050601f8311600181146200054257600084156200052d578287015190505b620005398582620004ac565b865550620005a9565b601f1984166200055286620002ee565b60005b828110156200057c5784890151825560018201915060208501945060208101905062000555565b868310156200059c578489015162000598601f8916826200048c565b8355505b6001600288020188555050505b505050505050565b6123d580620005c16000396000f3fe608060405234801561001057600080fd5b506004361061010b5760003560e01c80638fc88c48116100a2578063b88d4fde11610071578063b88d4fde146102c8578063c2f1f14a146102e4578063c87b56dd14610314578063e030565e14610344578063e985e9c5146103605761010b565b80638fc88c481461024257806395d89b4114610272578063a144819414610290578063a22cb465146102ac5761010b565b806323b872dd116100de57806323b872dd146101aa57806342842e0e146101c65780636352211e146101e257806370a08231146102125761010b565b806301ffc9a71461011057806306fdde0314610140578063081812fc1461015e578063095ea7b31461018e575b600080fd5b61012a60048036038101906101259190611a3e565b610390565b6040516101379190611a86565b60405180910390f35b610148610472565b6040516101559190611b31565b60405180910390f35b61017860048036038101906101739190611b89565b610504565b6040516101859190611bf7565b60405180910390f35b6101a860048036038101906101a39190611c3e565b610520565b005b6101c460048036038101906101bf9190611c7e565b610536565b005b6101e060048036038101906101db9190611c7e565b610638565b005b6101fc60048036038101906101f79190611b89565b610658565b6040516102099190611bf7565b60405180910390f35b61022c60048036038101906102279190611cd1565b61066a565b6040516102399190611d0d565b60405180910390f35b61025c60048036038101906102579190611b89565b610724565b6040516102699190611d0d565b60405180910390f35b61027a610762565b6040516102879190611b31565b60405180910390f35b6102aa60048036038101906102a59190611c3e565b6107f4565b005b6102c660048036038101906102c19190611d54565b610802565b005b6102e260048036038101906102dd9190611ec9565b610818565b005b6102fe60048036038101906102f99190611b89565b610835565b60405161030b9190611bf7565b60405180910390f35b61032e60048036038101906103299190611b89565b6108ab565b60405161033b9190611b31565b60405180910390f35b61035e60048036038101906103599190611f8c565b610914565b005b61037a60048036038101906103759190611fdf565b610a79565b6040516103879190611a86565b60405180910390f35b60007f80ac58cd000000000000000000000000000000000000000000000000000000007bffffffffffffffffffffffffffffffffffffffffffffffffffffffff1916827bffffffffffffffffffffffffffffffffffffffffffffffffffffffff1916148061045b57507f5b5e139f000000000000000000000000000000000000000000000000000000007bffffffffffffffffffffffffffffffffffffffffffffffffffffffff1916827bffffffffffffffffffffffffffffffffffffffffffffffffffffffff1916145b8061046b575061046a82610b0d565b5b9050919050565b6060600080546104819061204e565b80601f01602080910402602001604051908101604052809291908181526020018280546104ad9061204e565b80156104fa5780601f106104cf576101008083540402835291602001916104fa565b820191906000526020600020905b8154815290600101906020018083116104dd57829003601f168201915b5050505050905090565b600061050f82610b77565b5061051982610bff565b9050919050565b610532828261052d610c3c565b610c44565b5050565b600073ffffffffffffffffffffffffffffffffffffffff168273ffffffffffffffffffffffffffffffffffffffff16036105a85760006040517f64a0ae9200000000000000000000000000000000000000000000000000000000815260040161059f9190611bf7565b60405180910390fd5b60006105bc83836105b7610c3c565b610c56565b90508373ffffffffffffffffffffffffffffffffffffffff168173ffffffffffffffffffffffffffffffffffffffff1614610632578382826040517f64283d7b0000000000000000000000000000000000000000000000000000000081526004016106299392919061207f565b60405180910390fd5b50505050565b61065383838360405180602001604052806000815250610818565b505050565b600061066382610b77565b9050919050565b60008073ffffffffffffffffffffffffffffffffffffffff168273ffffffffffffffffffffffffffffffffffffffff16036106dd5760006040517f89c62b640000000000000000000000000000000000000000000000000000000081526004016106d49190611bf7565b60405180910390fd5b600360008373ffffffffffffffffffffffffffffffffffffffff1673ffffffffffffffffffffffffffffffffffffffff168152602001908152602001600020549050919050565b60006006600083815260200190815260200160002060000160149054906101000a900467ffffffffffffffff1667ffffffffffffffff169050919050565b6060600180546107719061204e565b80601f016020809104026020016040519081016040528092919081815260200182805461079d9061204e565b80156107ea5780601f106107bf576101008083540402835291602001916107ea565b820191906000526020600020905b8154815290600101906020018083116107cd57829003601f168201915b5050505050905090565b6107fe8282610e70565b5050565b61081461080d610c3c565b8383610e8e565b5050565b610823848484610536565b61082f84848484610ffd565b50505050565b600080600660008481526020019081526020016000209050428160000160149054906101000a900467ffffffffffffffff1667ffffffffffffffff161161087d5760006108a3565b8060000160009054906101000a900473ffffffffffffffffffffffffffffffffffffffff165b915050919050565b60606108b682610b77565b5060006108c16111b4565b905060008151116108e1576040518060200160405280600081525061090c565b806108eb846111cb565b6040516020016108fc9291906120f2565b6040516020818303038152906040525b915050919050565b61092561091f610c3c565b84611299565b610964576040517f08c379a000000000000000000000000000000000000000000000000000000000815260040161095b90612188565b60405180910390fd5b60405180604001604052808373ffffffffffffffffffffffffffffffffffffffff1681526020018267ffffffffffffffff168152506006600085815260200190815260200160002060008201518160000160006101000a81548173ffffffffffffffffffffffffffffffffffffffff021916908373ffffffffffffffffffffffffffffffffffffffff16021790555060208201518160000160146101000a81548167ffffffffffffffff021916908367ffffffffffffffff1602179055509050508173ffffffffffffffffffffffffffffffffffffffff16837f4e06b4e7000e659094299b3533b47b6aa8ad048e95e872d23d1f4ee55af89cfe83604051610a6c91906121b7565b60405180910390a3505050565b6000600560008473ffffffffffffffffffffffffffffffffffffffff1673ffffffffffffffffffffffffffffffffffffffff16815260200190815260200160002060008373ffffffffffffffffffffffffffffffffffffffff1673ffffffffffffffffffffffffffffffffffffffff16815260200190815260200160002060009054906101000a900460ff16905092915050565b60007f01ffc9a7000000000000000000000000000000000000000000000000000000007bffffffffffffffffffffffffffffffffffffffffffffffffffffffff1916827bffffffffffffffffffffffffffffffffffffffffffffffffffffffff1916149050919050565b600080610b8383611377565b9050600073ffffffffffffffffffffffffffffffffffffffff168173ffffffffffffffffffffffffffffffffffffffff1603610bf657826040517f7e273289000000000000000000000000000000000000000000000000000000008152600401610bed9190611d0d565b60405180910390fd5b80915050919050565b60006004600083815260200190815260200160002060009054906101000a900473ffffffffffffffffffffffffffffffffffffffff169050919050565b600033905090565b610c5183838360016113b4565b505050565b600080610c6284611377565b9050600073ffffffffffffffffffffffffffffffffffffffff168373ffffffffffffffffffffffffffffffffffffffff1614610ca457610ca3818486611579565b5b600073ffffffffffffffffffffffffffffffffffffffff168173ffffffffffffffffffffffffffffffffffffffff1614610d3557610ce66000856000806113b4565b6001600360008373ffffffffffffffffffffffffffffffffffffffff1673ffffffffffffffffffffffffffffffffffffffff168152602001908152602001600020600082825403925050819055505b600073ffffffffffffffffffffffffffffffffffffffff168573ffffffffffffffffffffffffffffffffffffffff1614610db8576001600360008773ffffffffffffffffffffffffffffffffffffffff1673ffffffffffffffffffffffffffffffffffffffff168152602001908152602001600020600082825401925050819055505b846002600086815260200190815260200160002060006101000a81548173ffffffffffffffffffffffffffffffffffffffff021916908373ffffffffffffffffffffffffffffffffffffffff160217905550838573ffffffffffffffffffffffffffffffffffffffff168273ffffffffffffffffffffffffffffffffffffffff167fddf252ad1be2c89b69c2b068fc378daa952ba7f163c4a11628f55a4df523b3ef60405160405180910390a4809150509392505050565b610e8a82826040518060200160405280600081525061163d565b5050565b600073ffffffffffffffffffffffffffffffffffffffff168273ffffffffffffffffffffffffffffffffffffffff1603610eff57816040517f5b08ba18000000000000000000000000000000000000000000000000000000008152600401610ef69190611bf7565b60405180910390fd5b80600560008573ffffffffffffffffffffffffffffffffffffffff1673ffffffffffffffffffffffffffffffffffffffff16815260200190815260200160002060008473ffffffffffffffffffffffffffffffffffffffff1673ffffffffffffffffffffffffffffffffffffffff16815260200190815260200160002060006101000a81548160ff0219169083151502179055508173ffffffffffffffffffffffffffffffffffffffff168373ffffffffffffffffffffffffffffffffffffffff167f17307eab39ab6107e8899845ad3d59bd9653f200f220920489ca2b5937696c3183604051610ff09190611a86565b60405180910390a3505050565b60008373ffffffffffffffffffffffffffffffffffffffff163b11156111ae578273ffffffffffffffffffffffffffffffffffffffff1663150b7a02611041610c3c565b8685856040518563ffffffff1660e01b81526004016110639493929190612227565b6020604051808303816000875af192505050801561109f57506040513d601f19601f8201168201806040525081019061109c9190612288565b60015b611123573d80600081146110cf576040519150601f19603f3d011682016040523d82523d6000602084013e6110d4565b606091505b50600081510361111b57836040517f64a0ae920000000000000000000000000000000000000000000000000000000081526004016111129190611bf7565b60405180910390fd5b805181602001fd5b63150b7a0260e01b7bffffffffffffffffffffffffffffffffffffffffffffffffffffffff1916817bffffffffffffffffffffffffffffffffffffffffffffffffffffffff1916146111ac57836040517f64a0ae920000000000000000000000000000000000000000000000000000000081526004016111a39190611bf7565b60405180910390fd5b505b50505050565b606060405180602001604052806000815250905090565b6060600060016111da84611659565b01905060008167ffffffffffffffff8111156111f9576111f8611d9e565b5b6040519080825280601f01601f19166020018201604052801561122b5781602001600182028036833780820191505090505b509050600082602001820190505b60011561128e578080600190039150507f3031323334353637383961626364656600000000000000000000000000000000600a86061a8153600a8581611282576112816122b5565b5b04945060008503611239575b819350505050919050565b60006112a4826117ac565b6112e3576040517f08c379a00000000000000000000000000000000000000000000000000000000081526004016112da90612356565b60405180910390fd5b60006112ee83610658565b90508073ffffffffffffffffffffffffffffffffffffffff168473ffffffffffffffffffffffffffffffffffffffff16148061135d57508373ffffffffffffffffffffffffffffffffffffffff1661134584610504565b73ffffffffffffffffffffffffffffffffffffffff16145b8061136e575061136d8185610a79565b5b91505092915050565b60006002600083815260200190815260200160002060009054906101000a900473ffffffffffffffffffffffffffffffffffffffff169050919050565b80806113ed5750600073ffffffffffffffffffffffffffffffffffffffff168273ffffffffffffffffffffffffffffffffffffffff1614155b156115215760006113fd84610b77565b9050600073ffffffffffffffffffffffffffffffffffffffff168373ffffffffffffffffffffffffffffffffffffffff161415801561146857508273ffffffffffffffffffffffffffffffffffffffff168173ffffffffffffffffffffffffffffffffffffffff1614155b801561147b57506114798184610a79565b155b156114bd57826040517fa9fbf51f0000000000000000000000000000000000000000000000000000000081526004016114b49190611bf7565b60405180910390fd5b811561151f57838573ffffffffffffffffffffffffffffffffffffffff168273ffffffffffffffffffffffffffffffffffffffff167f8c5be1e5ebec7d5bd14f71427d1e84f3dd0314c0f7b2291e5b200ac8c7c3b92560405160405180910390a45b505b836004600085815260200190815260200160002060006101000a81548173ffffffffffffffffffffffffffffffffffffffff021916908373ffffffffffffffffffffffffffffffffffffffff16021790555050505050565b611584838383611818565b61163857600073ffffffffffffffffffffffffffffffffffffffff168373ffffffffffffffffffffffffffffffffffffffff16036115f957806040517f7e2732890000000000000000000000000000000000000000000000000000000081526004016115f09190611d0d565b60405180910390fd5b81816040517f177e802f00000000000000000000000000000000000000000000000000000000815260040161162f929190612376565b60405180910390fd5b505050565b61164783836118d9565b6116546000848484610ffd565b505050565b600080600090507a184f03e93ff9f4daa797ed6e38ed64bf6a1f01000000000000000083106116b7577a184f03e93ff9f4daa797ed6e38ed64bf6a1f01000000000000000083816116ad576116ac6122b5565b5b0492506040810190505b6d04ee2d6d415b85acef810000000083106116f4576d04ee2d6d415b85acef810000000083816116ea576116e96122b5565b5b0492506020810190505b662386f26fc10000831061172357662386f26fc100008381611719576117186122b5565b5b0492506010810190505b6305f5e100831061174c576305f5e1008381611742576117416122b5565b5b0492506008810190505b6127108310611771576127108381611767576117666122b5565b5b0492506004810190505b60648310611794576064838161178a576117896122b5565b5b0492506002810190505b600a83106117a3576001810190505b80915050919050565b60008073ffffffffffffffffffffffffffffffffffffffff166002600084815260200190815260200160002060009054906101000a900473ffffffffffffffffffffffffffffffffffffffff1673ffffffffffffffffffffffffffffffffffffffff1614159050919050565b60008073ffffffffffffffffffffffffffffffffffffffff168373ffffffffffffffffffffffffffffffffffffffff16141580156118d057508273ffffffffffffffffffffffffffffffffffffffff168473ffffffffffffffffffffffffffffffffffffffff16148061189157506118908484610a79565b5b806118cf57508273ffffffffffffffffffffffffffffffffffffffff166118b783610bff565b73ffffffffffffffffffffffffffffffffffffffff16145b5b90509392505050565b600073ffffffffffffffffffffffffffffffffffffffff168273ffffffffffffffffffffffffffffffffffffffff160361194b5760006040517f64a0ae920000000000000000000000000000000000000000000000000000000081526004016119429190611bf7565b60405180910390fd5b600061195983836000610c56565b9050600073ffffffffffffffffffffffffffffffffffffffff168173ffffffffffffffffffffffffffffffffffffffff16146119cd5760006040517f73c6ac6e0000000000000000000000000000000000000000000000000000000081526004016119c49190611bf7565b60405180910390fd5b505050565b6000604051905090565b600080fd5b600080fd5b60007fffffffff0000000000000000000000000000000000000000000000000000000082169050919050565b611a1b816119e6565b8114611a2657600080fd5b50565b600081359050611a3881611a12565b92915050565b600060208284031215611a5457611a536119dc565b5b6000611a6284828501611a29565b91505092915050565b60008115159050919050565b611a8081611a6b565b82525050565b6000602082019050611a9b6000830184611a77565b92915050565b600081519050919050565b600082825260208201905092915050565b60005b83811015611adb578082015181840152602081019050611ac0565b60008484015250505050565b6000601f19601f8301169050919050565b6000611b0382611aa1565b611b0d8185611aac565b9350611b1d818560208601611abd565b611b2681611ae7565b840191505092915050565b60006020820190508181036000830152611b4b8184611af8565b905092915050565b6000819050919050565b611b6681611b53565b8114611b7157600080fd5b50565b600081359050611b8381611b5d565b92915050565b600060208284031215611b9f57611b9e6119dc565b5b6000611bad84828501611b74565b91505092915050565b600073ffffffffffffffffffffffffffffffffffffffff82169050919050565b6000611be182611bb6565b9050919050565b611bf181611bd6565b82525050565b6000602082019050611c0c6000830184611be8565b92915050565b611c1b81611bd6565b8114611c2657600080fd5b50565b600081359050611c3881611c12565b92915050565b60008060408385031215611c5557611c546119dc565b5b6000611c6385828601611c29565b9250506020611c7485828601611b74565b9150509250929050565b600080600060608486031215611c9757611c966119dc565b5b6000611ca586828701611c29565b9350506020611cb686828701611c29565b9250506040611cc786828701611b74565b9150509250925092565b600060208284031215611ce757611ce66119dc565b5b6000611cf584828501611c29565b91505092915050565b611d0781611b53565b82525050565b6000602082019050611d226000830184611cfe565b92915050565b611d3181611a6b565b8114611d3c57600080fd5b50565b600081359050611d4e81611d28565b92915050565b60008060408385031215611d6b57611d6a6119dc565b5b6000611d7985828601611c29565b9250506020611d8a85828601611d3f565b9150509250929050565b600080fd5b600080fd5b7f4e487b7100000000000000000000000000000000000000000000000000000000600052604160045260246000fd5b611dd682611ae7565b810181811067ffffffffffffffff82111715611df557611df4611d9e565b5b80604052505050565b6000611e086119d2565b9050611e148282611dcd565b919050565b600067ffffffffffffffff821115611e3457611e33611d9e565b5b611e3d82611ae7565b9050602081019050919050565b82818337600083830152505050565b6000611e6c611e6784611e19565b611dfe565b905082815260208101848484011115611e8857611e87611d99565b5b611e93848285611e4a565b509392505050565b600082601f830112611eb057611eaf611d94565b5b8135611ec0848260208601611e59565b91505092915050565b60008060008060808587031215611ee357611ee26119dc565b5b6000611ef187828801611c29565b9450506020611f0287828801611c29565b9350506040611f1387828801611b74565b925050606085013567ffffffffffffffff811115611f3457611f336119e1565b5b611f4087828801611e9b565b91505092959194509250565b600067ffffffffffffffff82169050919050565b611f6981611f4c565b8114611f7457600080fd5b50565b600081359050611f8681611f60565b92915050565b600080600060608486031215611fa557611fa46119dc565b5b6000611fb386828701611b74565b9350506020611fc486828701611c29565b9250506040611fd586828701611f77565b9150509250925092565b60008060408385031215611ff657611ff56119dc565b5b600061200485828601611c29565b925050602061201585828601611c29565b9150509250929050565b7f4e487b7100000000000000000000000000000000000000000000000000000000600052602260045260246000fd5b6000600282049050600182168061206657607f821691505b6020821081036120795761207861201f565b5b50919050565b60006060820190506120946000830186611be8565b6120a16020830185611cfe565b6120ae6040830184611be8565b949350505050565b600081905092915050565b60006120cc82611aa1565b6120d681856120b6565b93506120e6818560208601611abd565b80840191505092915050565b60006120fe82856120c1565b915061210a82846120c1565b91508190509392505050565b7f455243343930373a2063616c6c6572206973206e6f74206f776e6572206e6f7260008201527f20617070726f7665640000000000000000000000000000000000000000000000602082015250565b6000612172602983611aac565b915061217d82612116565b604082019050919050565b600060208201905081810360008301526121a181612165565b9050919050565b6121b181611f4c565b82525050565b60006020820190506121cc60008301846121a8565b92915050565b600081519050919050565b600082825260208201905092915050565b60006121f9826121d2565b61220381856121dd565b9350612213818560208601611abd565b61221c81611ae7565b840191505092915050565b600060808201905061223c6000830187611be8565b6122496020830186611be8565b6122566040830185611cfe565b818103606083015261226881846121ee565b905095945050505050565b60008151905061228281611a12565b92915050565b60006020828403121561229e5761229d6119dc565b5b60006122ac84828501612273565b91505092915050565b7f4e487b7100000000000000000000000000000000000000000000000000000000600052601260045260246000fd5b7f4552433732313a206f70657261746f7220717565727920666f72206e6f6e657860008201527f697374656e7420746f6b656e0000000000000000000000000000000000000000602082015250565b6000612340602c83611aac565b915061234b826122e4565b604082019050919050565b6000602082019050818103600083015261236f81612333565b9050919050565b600060408201905061238b6000830185611be8565b6123986020830184611cfe565b939250505056fea264697066735822122091538ac0fadd326aa2b96d9d6958513765bc94d9424ff6d8a013d38f690587e764736f6c63430008140033",
  "linkReferences": {},
  "deployedLinkReferences": {}
}